{
  "contractName": "LandRecord",
  "abi": [
    {
      "inputs": [],
      "payable": false,
      "stateMutability": "nonpayable",
      "type": "constructor"
    },
    {
      "constant": true,
      "inputs": [
        {
          "internalType": "uint256",
          "name": "",
          "type": "uint256"
        }
      ],
      "name": "lands",
      "outputs": [
        {
          "internalType": "address",
          "name": "ownerAddr",
          "type": "address"
        },
        {
          "internalType": "string",
          "name": "streetAddress",
          "type": "string"
        },
        {
          "internalType": "string",
          "name": "ownerName",
          "type": "string"
        },
        {
          "internalType": "string",
          "name": "ownerID",
          "type": "string"
        },
        {
          "internalType": "uint256",
          "name": "price",
          "type": "uint256"
        },
        {
          "internalType": "bytes1",
          "name": "statusForPurchase",
          "type": "bytes1"
        }
      ],
      "payable": false,
      "stateMutability": "view",
      "type": "function"
    },
    {
      "constant": true,
      "inputs": [],
      "name": "owner",
      "outputs": [
        {
          "internalType": "address",
          "name": "",
          "type": "address"
        }
      ],
      "payable": false,
      "stateMutability": "view",
      "type": "function"
    },
    {
      "constant": true,
      "inputs": [
        {
          "internalType": "uint256",
          "name": "",
          "type": "uint256"
        }
      ],
      "name": "personalProperties",
      "outputs": [
        {
          "internalType": "address",
          "name": "ownerAddr",
          "type": "address"
        },
        {
          "internalType": "string",
          "name": "streetAddress",
          "type": "string"
        },
        {
          "internalType": "string",
          "name": "ownerName",
          "type": "string"
        },
        {
          "internalType": "string",
          "name": "ownerID",
          "type": "string"
        },
        {
          "internalType": "uint256",
          "name": "price",
          "type": "uint256"
        },
        {
          "internalType": "bytes1",
          "name": "statusForPurchase",
          "type": "bytes1"
        }
      ],
      "payable": false,
      "stateMutability": "view",
      "type": "function"
    },
    {
      "constant": false,
      "inputs": [
        {
          "internalType": "string",
          "name": "_addr",
          "type": "string"
        },
        {
          "internalType": "string",
          "name": "_Oname",
          "type": "string"
        },
        {
          "internalType": "string",
          "name": "_Id",
          "type": "string"
        },
        {
          "internalType": "uint256",
          "name": "_price",
          "type": "uint256"
        },
        {
          "internalType": "address",
          "name": "OwnAddr",
          "type": "address"
        }
      ],
      "name": "addLand",
      "outputs": [],
      "payable": false,
      "stateMutability": "nonpayable",
      "type": "function"
    },
    {
      "constant": false,
      "inputs": [
        {
          "internalType": "address",
          "name": "from",
          "type": "address"
        },
        {
          "internalType": "string",
          "name": "toName",
          "type": "string"
        },
        {
          "internalType": "string",
          "name": "toID",
          "type": "string"
        },
        {
          "internalType": "address",
          "name": "to",
          "type": "address"
        },
        {
          "internalType": "string",
          "name": "addr",
          "type": "string"
        }
      ],
      "name": "transferOwnerShip",
      "outputs": [],
      "payable": true,
      "stateMutability": "payable",
      "type": "function"
    },
    {
      "constant": false,
      "inputs": [
        {
          "internalType": "string",
          "name": "addr",
          "type": "string"
        }
      ],
      "name": "adddisputeLand",
      "outputs": [],
      "payable": true,
      "stateMutability": "payable",
      "type": "function"
    },
    {
      "constant": false,
      "inputs": [
        {
          "internalType": "string",
          "name": "addr",
          "type": "string"
        }
      ],
      "name": "handleDispute",
      "outputs": [],
      "payable": false,
      "stateMutability": "nonpayable",
      "type": "function"
    },
    {
      "constant": false,
      "inputs": [
        {
          "internalType": "address",
          "name": "addr",
          "type": "address"
        }
      ],
      "name": "ViewMyLands",
      "outputs": [
        {
          "components": [
            {
              "internalType": "address",
              "name": "ownerAddr",
              "type": "address"
            },
            {
              "internalType": "string",
              "name": "streetAddress",
              "type": "string"
            },
            {
              "internalType": "string",
              "name": "ownerName",
              "type": "string"
            },
            {
              "internalType": "string",
              "name": "ownerID",
              "type": "string"
            },
            {
              "internalType": "uint256",
              "name": "price",
              "type": "uint256"
            },
            {
              "internalType": "bytes1",
              "name": "statusForPurchase",
              "type": "bytes1"
            }
          ],
          "internalType": "struct LandRecord.Land[]",
          "name": "rec",
          "type": "tuple[]"
        }
      ],
      "payable": true,
      "stateMutability": "payable",
      "type": "function"
    },
    {
      "constant": true,
      "inputs": [],
      "name": "ViewAllLands",
      "outputs": [
        {
          "components": [
            {
              "internalType": "address",
              "name": "ownerAddr",
              "type": "address"
            },
            {
              "internalType": "string",
              "name": "streetAddress",
              "type": "string"
            },
            {
              "internalType": "string",
              "name": "ownerName",
              "type": "string"
            },
            {
              "internalType": "string",
              "name": "ownerID",
              "type": "string"
            },
            {
              "internalType": "uint256",
              "name": "price",
              "type": "uint256"
            },
            {
              "internalType": "bytes1",
              "name": "statusForPurchase",
              "type": "bytes1"
            }
          ],
          "internalType": "struct LandRecord.Land[]",
          "name": "rec",
          "type": "tuple[]"
        }
      ],
      "payable": false,
      "stateMutability": "view",
      "type": "function"
    }
  ],
  "bytecode": "0x608060405234801561001057600080fd5b5033600260006101000a81548173ffffffffffffffffffffffffffffffffffffffff021916908373ffffffffffffffffffffffffffffffffffffffff16021790555061208c806100616000396000f3fe6080604052600436106100865760003560e01c8063843ec71011610059578063843ec7101461012b5780638da5cb5b146101475780638e8e3b0d146101725780639564234a1461019b578063e261f1e5146101dd57610086565b8063345362a71461008b5780633cfd66f0146100bb578063608f95cd146100d75780636df02b4714610102575b600080fd5b6100a560048036036100a091908101906118cc565b61021f565b6040516100b29190611e3f565b60405180910390f35b6100d560048036036100d091908101906118f5565b610725565b005b3480156100e357600080fd5b506100ec61098f565b6040516100f99190611e3f565b60405180910390f35b34801561010e57600080fd5b50610129600480360361012491908101906119f5565b610c8f565b005b610145600480360361014091908101906119b4565b610ec0565b005b34801561015357600080fd5b5061015c610f7d565b6040516101699190611dae565b60405180910390f35b34801561017e57600080fd5b50610199600480360361019491908101906119b4565b610fa3565b005b3480156101a757600080fd5b506101c260048036036101bd9190810190611ab4565b6110ba565b6040516101d496959493929190611dc9565b60405180910390f35b3480156101e957600080fd5b5061020460048036036101ff9190810190611ab4565b6112f8565b60405161021696959493929190611dc9565b60405180910390f35b60606001600061022f9190611536565b60008090505b600080549050811015610424578273ffffffffffffffffffffffffffffffffffffffff166000828154811061026657fe5b906000526020600020906006020160000160009054906101000a900473ffffffffffffffffffffffffffffffffffffffff1673ffffffffffffffffffffffffffffffffffffffff161415610417576001600082815481106102c357fe5b9060005260206000209060060201908060018154018082558091505090600182039060005260206000209060060201600090919290919091506000820160009054906101000a900473ffffffffffffffffffffffffffffffffffffffff168160000160006101000a81548173ffffffffffffffffffffffffffffffffffffffff021916908373ffffffffffffffffffffffffffffffffffffffff1602179055506001820181600101908054600181600116156101000203166002900461038a92919061155a565b50600282018160020190805460018160011615610100020316600290046103b292919061155a565b50600382018160030190805460018160011615610100020316600290046103da92919061155a565b50600482015481600401556005820160009054906101000a900460f81b8160050160006101000a81548160ff021916908360f81c02179055505050505b8080600101915050610235565b506001805480602002602001604051908101604052809291908181526020016000905b8282101561071a57838290600052602060002090600602016040518060c00160405290816000820160009054906101000a900473ffffffffffffffffffffffffffffffffffffffff1673ffffffffffffffffffffffffffffffffffffffff1673ffffffffffffffffffffffffffffffffffffffff168152602001600182018054600181600116156101000203166002900480601f0160208091040260200160405190810160405280929190818152602001828054600181600116156101000203166002900480156105595780601f1061052e57610100808354040283529160200191610559565b820191906000526020600020905b81548152906001019060200180831161053c57829003601f168201915b50505050508152602001600282018054600181600116156101000203166002900480601f0160208091040260200160405190810160405280929190818152602001828054600181600116156101000203166002900480156105fb5780601f106105d0576101008083540402835291602001916105fb565b820191906000526020600020905b8154815290600101906020018083116105de57829003601f168201915b50505050508152602001600382018054600181600116156101000203166002900480601f01602080910402602001604051908101604052809291908181526020018280546001816001161561010002031660029004801561069d5780601f106106725761010080835404028352916020019161069d565b820191906000526020600020905b81548152906001019060200180831161068057829003601f168201915b50505050508152602001600482015481526020016005820160009054906101000a900460f81b7effffffffffffffffffffffffffffffffffffffffffffffffffffffffffffff19167effffffffffffffffffffffffffffffffffffffffffffffffffffffffffffff19168152505081526020019060010190610447565b505050509050919050565b60008090505b6000805490508110156109875781805190602001206000828154811061074d57fe5b906000526020600020906006020160010160405161076b9190611d97565b6040518091039020141561097a578573ffffffffffffffffffffffffffffffffffffffff166000828154811061079d57fe5b906000526020600020906006020160000160009054906101000a900473ffffffffffffffffffffffffffffffffffffffff1673ffffffffffffffffffffffffffffffffffffffff161415610979577f41000000000000000000000000000000000000000000000000000000000000006000828154811061081957fe5b906000526020600020906006020160050160009054906101000a900460f81b7effffffffffffffffffffffffffffffffffffffffffffffffffffffffffffff1916141561093d57670de0b6b3a764000034101561087557600080fd5b826000828154811061088357fe5b906000526020600020906006020160000160006101000a81548173ffffffffffffffffffffffffffffffffffffffff021916908373ffffffffffffffffffffffffffffffffffffffff16021790555084600082815481106108e057fe5b906000526020600020906006020160020190805190602001906109049291906115e1565b50836000828154811061091357fe5b906000526020600020906006020160030190805190602001906109379291906115e1565b50610978565b6040517f08c379a000000000000000000000000000000000000000000000000000000000815260040161096f90611e61565b60405180910390fd5b5b5b808060010191505061072b565b505050505050565b60606000805480602002602001604051908101604052809291908181526020016000905b82821015610c8657838290600052602060002090600602016040518060c00160405290816000820160009054906101000a900473ffffffffffffffffffffffffffffffffffffffff1673ffffffffffffffffffffffffffffffffffffffff1673ffffffffffffffffffffffffffffffffffffffff168152602001600182018054600181600116156101000203166002900480601f016020809104026020016040519081016040528092919081815260200182805460018160011615610100020316600290048015610ac55780601f10610a9a57610100808354040283529160200191610ac5565b820191906000526020600020905b815481529060010190602001808311610aa857829003601f168201915b50505050508152602001600282018054600181600116156101000203166002900480601f016020809104026020016040519081016040528092919081815260200182805460018160011615610100020316600290048015610b675780601f10610b3c57610100808354040283529160200191610b67565b820191906000526020600020905b815481529060010190602001808311610b4a57829003601f168201915b50505050508152602001600382018054600181600116156101000203166002900480601f016020809104026020016040519081016040528092919081815260200182805460018160011615610100020316600290048015610c095780601f10610bde57610100808354040283529160200191610c09565b820191906000526020600020905b815481529060010190602001808311610bec57829003601f168201915b50505050508152602001600482015481526020016005820160009054906101000a900460f81b7effffffffffffffffffffffffffffffffffffffffffffffffffffffffffffff19167effffffffffffffffffffffffffffffffffffffffffffffffffffffffffffff191681525050815260200190600101906109b3565b50505050905090565b3373ffffffffffffffffffffffffffffffffffffffff16600260009054906101000a900473ffffffffffffffffffffffffffffffffffffffff1673ffffffffffffffffffffffffffffffffffffffff1614610ce957600080fd5b610cf1611661565b81816000019073ffffffffffffffffffffffffffffffffffffffff16908173ffffffffffffffffffffffffffffffffffffffff1681525050858160200181905250848160400181905250838160600181905250828160800181815250507f41000000000000000000000000000000000000000000000000000000000000008160a001907effffffffffffffffffffffffffffffffffffffffffffffffffffffffffffff191690817effffffffffffffffffffffffffffffffffffffffffffffffffffffffffffff1916815250506000819080600181540180825580915050906001820390600052602060002090600602016000909192909190915060008201518160000160006101000a81548173ffffffffffffffffffffffffffffffffffffffff021916908373ffffffffffffffffffffffffffffffffffffffff1602179055506020820151816001019080519060200190610e4f9291906116cf565b506040820151816002019080519060200190610e6c9291906116cf565b506060820151816003019080519060200190610e899291906116cf565b506080820151816004015560a08201518160050160006101000a81548160ff021916908360f81c0217905550505050505050505050565b60008090505b600080549050811015610f7957818051906020012060008281548110610ee857fe5b9060005260206000209060060201600101604051610f069190611d97565b60405180910390201415610f6c577f440000000000000000000000000000000000000000000000000000000000000060008281548110610f4257fe5b906000526020600020906006020160050160006101000a81548160ff021916908360f81c02179055505b8080600101915050610ec6565b5050565b600260009054906101000a900473ffffffffffffffffffffffffffffffffffffffff1681565b3373ffffffffffffffffffffffffffffffffffffffff16600260009054906101000a900473ffffffffffffffffffffffffffffffffffffffff1673ffffffffffffffffffffffffffffffffffffffff1614610ffd57600080fd5b60008090505b6000805490508110156110b65781805190602001206000828154811061102557fe5b90600052602060002090600602016001016040516110439190611d97565b604051809103902014156110a9577f41000000000000000000000000000000000000000000000000000000000000006000828154811061107f57fe5b906000526020600020906006020160050160006101000a81548160ff021916908360f81c02179055505b8080600101915050611003565b5050565b600181815481106110c757fe5b90600052602060002090600602016000915090508060000160009054906101000a900473ffffffffffffffffffffffffffffffffffffffff1690806001018054600181600116156101000203166002900480601f0160208091040260200160405190810160405280929190818152602001828054600181600116156101000203166002900480156111995780601f1061116e57610100808354040283529160200191611199565b820191906000526020600020905b81548152906001019060200180831161117c57829003601f168201915b505050505090806002018054600181600116156101000203166002900480601f0160208091040260200160405190810160405280929190818152602001828054600181600116156101000203166002900480156112375780601f1061120c57610100808354040283529160200191611237565b820191906000526020600020905b81548152906001019060200180831161121a57829003601f168201915b505050505090806003018054600181600116156101000203166002900480601f0160208091040260200160405190810160405280929190818152602001828054600181600116156101000203166002900480156112d55780601f106112aa576101008083540402835291602001916112d5565b820191906000526020600020905b8154815290600101906020018083116112b857829003601f168201915b5050505050908060040154908060050160009054906101000a900460f81b905086565b6000818154811061130557fe5b90600052602060002090600602016000915090508060000160009054906101000a900473ffffffffffffffffffffffffffffffffffffffff1690806001018054600181600116156101000203166002900480601f0160208091040260200160405190810160405280929190818152602001828054600181600116156101000203166002900480156113d75780601f106113ac576101008083540402835291602001916113d7565b820191906000526020600020905b8154815290600101906020018083116113ba57829003601f168201915b505050505090806002018054600181600116156101000203166002900480601f0160208091040260200160405190810160405280929190818152602001828054600181600116156101000203166002900480156114755780601f1061144a57610100808354040283529160200191611475565b820191906000526020600020905b81548152906001019060200180831161145857829003601f168201915b505050505090806003018054600181600116156101000203166002900480601f0160208091040260200160405190810160405280929190818152602001828054600181600116156101000203166002900480156115135780601f106114e857610100808354040283529160200191611513565b820191906000526020600020905b8154815290600101906020018083116114f657829003601f168201915b5050505050908060040154908060050160009054906101000a900460f81b905086565b5080546000825560060290600052602060002090810190611557919061174f565b50565b828054600181600116156101000203166002900490600052602060002090601f016020900481019282601f1061159357805485556115d0565b828001600101855582156115d057600052602060002091601f016020900482015b828111156115cf5782548255916001019190600101906115b4565b5b5090506115dd91906117e1565b5090565b828054600181600116156101000203166002900490600052602060002090601f016020900481019282601f1061162257805160ff1916838001178555611650565b82800160010185558215611650579182015b8281111561164f578251825591602001919060010190611634565b5b50905061165d91906117e1565b5090565b6040518060c00160405280600073ffffffffffffffffffffffffffffffffffffffff1681526020016060815260200160608152602001606081526020016000815260200160007effffffffffffffffffffffffffffffffffffffffffffffffffffffffffffff191681525090565b828054600181600116156101000203166002900490600052602060002090601f016020900481019282601f1061171057805160ff191683800117855561173e565b8280016001018555821561173e579182015b8281111561173d578251825591602001919060010190611722565b5b50905061174b91906117e1565b5090565b6117de91905b808211156117da57600080820160006101000a81549073ffffffffffffffffffffffffffffffffffffffff02191690556001820160006117959190611806565b6002820160006117a59190611806565b6003820160006117b59190611806565b60048201600090556005820160006101000a81549060ff021916905550600601611755565b5090565b90565b61180391905b808211156117ff5760008160009055506001016117e7565b5090565b90565b50805460018160011615610100020316600290046000825580601f1061182c575061184b565b601f01602090049060005260206000209081019061184a91906117e1565b5b50565b60008135905061185d8161201b565b92915050565b600082601f83011261187457600080fd5b813561188761188282611eae565b611e81565b915080825260208301602083018583830111156118a357600080fd5b6118ae838284611fc8565b50505092915050565b6000813590506118c681612032565b92915050565b6000602082840312156118de57600080fd5b60006118ec8482850161184e565b91505092915050565b600080600080600060a0868803121561190d57600080fd5b600061191b8882890161184e565b955050602086013567ffffffffffffffff81111561193857600080fd5b61194488828901611863565b945050604086013567ffffffffffffffff81111561196157600080fd5b61196d88828901611863565b935050606061197e8882890161184e565b925050608086013567ffffffffffffffff81111561199b57600080fd5b6119a788828901611863565b9150509295509295909350565b6000602082840312156119c657600080fd5b600082013567ffffffffffffffff8111156119e057600080fd5b6119ec84828501611863565b91505092915050565b600080600080600060a08688031215611a0d57600080fd5b600086013567ffffffffffffffff811115611a2757600080fd5b611a3388828901611863565b955050602086013567ffffffffffffffff811115611a5057600080fd5b611a5c88828901611863565b945050604086013567ffffffffffffffff811115611a7957600080fd5b611a8588828901611863565b9350506060611a96888289016118b7565b9250506080611aa78882890161184e565b9150509295509295909350565b600060208284031215611ac657600080fd5b6000611ad4848285016118b7565b91505092915050565b6000611ae98383611ce2565b905092915050565b611afa81611f60565b82525050565b611b0981611f60565b82525050565b6000611b1a82611eff565b611b248185611f22565b935083602082028501611b3685611eda565b8060005b85811015611b725784840389528151611b538582611add565b9450611b5e83611f15565b925060208a01995050600181019050611b3a565b50829750879550505050505092915050565b611b8d81611f72565b82525050565b611b9c81611f72565b82525050565b600081546001811660008114611bbf5760018114611be457611c28565b607f6002830416611bd08187611f33565b955060ff1983168652808601935050611c28565b60028204611bf28187611f33565b9550611bfd85611eea565b60005b82811015611c1f57815481890152600182019150602081019050611c00565b82880195505050505b505092915050565b6000611c3b82611f0a565b611c458185611f3e565b9350611c55818560208601611fd7565b611c5e8161200a565b840191505092915050565b6000611c7482611f0a565b611c7e8185611f4f565b9350611c8e818560208601611fd7565b611c978161200a565b840191505092915050565b6000611caf600d83611f4f565b91507f4469737075746564204c616e64000000000000000000000000000000000000006000830152602082019050919050565b600060c083016000830151611cfa6000860182611af1565b5060208301518482036020860152611d128282611c30565b91505060408301518482036040860152611d2c8282611c30565b91505060608301518482036060860152611d468282611c30565b9150506080830151611d5b6080860182611d79565b5060a0830151611d6e60a0860182611b84565b508091505092915050565b611d8281611fbe565b82525050565b611d9181611fbe565b82525050565b6000611da38284611ba2565b915081905092915050565b6000602082019050611dc36000830184611b00565b92915050565b600060c082019050611dde6000830189611b00565b8181036020830152611df08188611c69565b90508181036040830152611e048187611c69565b90508181036060830152611e188186611c69565b9050611e276080830185611d88565b611e3460a0830184611b93565b979650505050505050565b60006020820190508181036000830152611e598184611b0f565b905092915050565b60006020820190508181036000830152611e7a81611ca2565b9050919050565b6000604051905081810181811067ffffffffffffffff82111715611ea457600080fd5b8060405250919050565b600067ffffffffffffffff821115611ec557600080fd5b601f19601f8301169050602081019050919050565b6000819050602082019050919050565b60008190508160005260206000209050919050565b600081519050919050565b600081519050919050565b6000602082019050919050565b600082825260208201905092915050565b600081905092915050565b600082825260208201905092915050565b600082825260208201905092915050565b6000611f6b82611f9e565b9050919050565b60007fff0000000000000000000000000000000000000000000000000000000000000082169050919050565b600073ffffffffffffffffffffffffffffffffffffffff82169050919050565b6000819050919050565b82818337600083830152505050565b60005b83811015611ff5578082015181840152602081019050611fda565b83811115612004576000848401525b50505050565b6000601f19601f8301169050919050565b61202481611f60565b811461202f57600080fd5b50565b61203b81611fbe565b811461204657600080fd5b5056fea365627a7a72315820c2ed53f649272326cfea3739c4b855b29482269d2556ccfa618f42f930861e286c6578706572696d656e74616cf564736f6c63430005100040",
  "source": "\npragma solidity >=0.4.22 <0.8.0;\n\npragma experimental ABIEncoderV2;\n\n\ncontract LandRecord {\n    \n    \n    struct Land  {\n        address ownerAddr;\n        string streetAddress;\n        string ownerName;\n        string ownerID;\n        uint price;\n        byte statusForPurchase;\n    }\n \n    \n    \n    Land[] public lands;\n    \n    Land [] public personalProperties;\n    \n    address public owner;\n    \n    modifier onlyOwner {\n        require (owner==msg.sender);\n        _;\n    }\n    \n    constructor() public {\n        owner= msg.sender;\n    }\n    \n     function addLand (string memory _addr , string memory _Oname, string memory _Id, uint _price, address OwnAddr ) public onlyOwner {\n        \n        Land memory a;\n        \n        a.ownerAddr = OwnAddr;\n        a.streetAddress = _addr;\n        a.ownerName = _Oname;\n        a.ownerID = _Id;\n        a.price = _price;\n        a.statusForPurchase = 'A';\n        \n        lands.push(a);\n    }\n    \n    \n    function transferOwnerShip (address from ,string memory toName, string memory toID, address to , string memory addr) public payable {\n        \n        for (uint i=0; i<lands.length; i++){\n            \n            if (keccak256(bytes(lands[i].streetAddress))==keccak256(bytes(addr))){\n                \n                if (lands[i].ownerAddr == from)\n                {\n                    \n                    if (lands[i].statusForPurchase == 'A')\n                    {\n                        \n                    require (msg.value >= 1000000000000000000);\n                        \n                    lands[i].ownerAddr = to;\n                    lands[i].ownerName= toName;\n                    lands[i].ownerID = toID;\n                    }\n                    else {\n                        revert ('Disputed Land');\n                    }\n                    \n                    \n                }\n                \n            }\n            \n        }\n        \n       \n        \n    }\n    \n    \n    function adddisputeLand (string memory  addr) public payable {\n        \n         for (uint i=0; i< lands.length; i++)\n        {\n            if (keccak256(bytes(lands[i].streetAddress))==keccak256(bytes(addr)))\n            {\n                lands[i].statusForPurchase = 'D';\n            }\n            \n        }\n        \n    }\n    \n    function handleDispute (string memory  addr)public onlyOwner {\n        \n        \n         for (uint i=0; i< lands.length; i++)\n        {\n            if (keccak256(bytes(lands[i].streetAddress))==keccak256(bytes(addr)))\n            {\n                lands[i].statusForPurchase = 'A';\n            }\n            \n        }\n    }\n    \n    \n    function ViewMyLands (address addr) public payable returns (Land[] memory rec) {\n        \n        \n        \n        delete personalProperties;\n        for (uint i=0; i< lands.length; i++)\n        {\n            if (lands[i].ownerAddr== addr)\n            {\n                personalProperties.push(lands[i]);\n            }\n            \n        }\n         return personalProperties;\n    }\n    \n    function ViewAllLands () public view returns (Land[] memory rec) {\n        return lands;\n    }\n  \n    \n}\n\n",
  "sourcePath": "C:/Users/hp/ethereum/truffle/LandRecord/contracts/LandRecord.sol",
  "compiler": {
    "name": "solc",
    "version": "0.5.16+commit.9c3226ce.Emscripten.clang"
  },
  "schemaVersion": "3.3.2",
  "updatedAt": "2020-12-15T07:55:19.947Z",
  "networkType": "ethereum",
  "devdoc": {
    "methods": {}
  },
  "userdoc": {
    "methods": {}
  }
}